{
  "contractName": "TicketingSystem",
  "abi": [
    {
      "inputs": [],
      "stateMutability": "nonpayable",
      "type": "constructor"
    },
    {
      "anonymous": false,
      "inputs": [
        {
          "indexed": true,
          "internalType": "address",
          "name": "owner",
          "type": "address"
        },
        {
          "indexed": true,
          "internalType": "address",
          "name": "approved",
          "type": "address"
        },
        {
          "indexed": true,
          "internalType": "uint256",
          "name": "tokenId",
          "type": "uint256"
        }
      ],
      "name": "Approval",
      "type": "event"
    },
    {
      "anonymous": false,
      "inputs": [
        {
          "indexed": true,
          "internalType": "address",
          "name": "owner",
          "type": "address"
        },
        {
          "indexed": true,
          "internalType": "address",
          "name": "operator",
          "type": "address"
        },
        {
          "indexed": false,
          "internalType": "bool",
          "name": "approved",
          "type": "bool"
        }
      ],
      "name": "ApprovalForAll",
      "type": "event"
    },
    {
      "anonymous": false,
      "inputs": [
        {
          "indexed": false,
          "internalType": "uint256",
          "name": "ticketId",
          "type": "uint256"
        }
      ],
      "name": "TicketMinted",
      "type": "event"
    },
    {
      "anonymous": false,
      "inputs": [
        {
          "indexed": true,
          "internalType": "address",
          "name": "from",
          "type": "address"
        },
        {
          "indexed": true,
          "internalType": "address",
          "name": "to",
          "type": "address"
        },
        {
          "indexed": true,
          "internalType": "uint256",
          "name": "tokenId",
          "type": "uint256"
        }
      ],
      "name": "Transfer",
      "type": "event"
    },
    {
      "inputs": [
        {
          "internalType": "address",
          "name": "to",
          "type": "address"
        },
        {
          "internalType": "uint256",
          "name": "tokenId",
          "type": "uint256"
        }
      ],
      "name": "approve",
      "outputs": [],
      "stateMutability": "nonpayable",
      "type": "function"
    },
    {
      "inputs": [
        {
          "internalType": "address",
          "name": "owner",
          "type": "address"
        }
      ],
      "name": "balanceOf",
      "outputs": [
        {
          "internalType": "uint256",
          "name": "",
          "type": "uint256"
        }
      ],
      "stateMutability": "view",
      "type": "function",
      "constant": true
    },
    {
      "inputs": [
        {
          "internalType": "uint256",
          "name": "tokenId",
          "type": "uint256"
        }
      ],
      "name": "getApproved",
      "outputs": [
        {
          "internalType": "address",
          "name": "",
          "type": "address"
        }
      ],
      "stateMutability": "view",
      "type": "function",
      "constant": true
    },
    {
      "inputs": [
        {
          "internalType": "address",
          "name": "owner",
          "type": "address"
        },
        {
          "internalType": "address",
          "name": "operator",
          "type": "address"
        }
      ],
      "name": "isApprovedForAll",
      "outputs": [
        {
          "internalType": "bool",
          "name": "",
          "type": "bool"
        }
      ],
      "stateMutability": "view",
      "type": "function",
      "constant": true
    },
    {
      "inputs": [],
      "name": "name",
      "outputs": [
        {
          "internalType": "string",
          "name": "",
          "type": "string"
        }
      ],
      "stateMutability": "view",
      "type": "function",
      "constant": true
    },
    {
      "inputs": [
        {
          "internalType": "uint256",
          "name": "tokenId",
          "type": "uint256"
        }
      ],
      "name": "ownerOf",
      "outputs": [
        {
          "internalType": "address",
          "name": "",
          "type": "address"
        }
      ],
      "stateMutability": "view",
      "type": "function",
      "constant": true
    },
    {
      "inputs": [
        {
          "internalType": "address",
          "name": "from",
          "type": "address"
        },
        {
          "internalType": "address",
          "name": "to",
          "type": "address"
        },
        {
          "internalType": "uint256",
          "name": "tokenId",
          "type": "uint256"
        }
      ],
      "name": "safeTransferFrom",
      "outputs": [],
      "stateMutability": "nonpayable",
      "type": "function"
    },
    {
      "inputs": [
        {
          "internalType": "address",
          "name": "from",
          "type": "address"
        },
        {
          "internalType": "address",
          "name": "to",
          "type": "address"
        },
        {
          "internalType": "uint256",
          "name": "tokenId",
          "type": "uint256"
        },
        {
          "internalType": "bytes",
          "name": "data",
          "type": "bytes"
        }
      ],
      "name": "safeTransferFrom",
      "outputs": [],
      "stateMutability": "nonpayable",
      "type": "function"
    },
    {
      "inputs": [
        {
          "internalType": "address",
          "name": "operator",
          "type": "address"
        },
        {
          "internalType": "bool",
          "name": "approved",
          "type": "bool"
        }
      ],
      "name": "setApprovalForAll",
      "outputs": [],
      "stateMutability": "nonpayable",
      "type": "function"
    },
    {
      "inputs": [
        {
          "internalType": "bytes4",
          "name": "interfaceId",
          "type": "bytes4"
        }
      ],
      "name": "supportsInterface",
      "outputs": [
        {
          "internalType": "bool",
          "name": "",
          "type": "bool"
        }
      ],
      "stateMutability": "view",
      "type": "function",
      "constant": true
    },
    {
      "inputs": [],
      "name": "symbol",
      "outputs": [
        {
          "internalType": "string",
          "name": "",
          "type": "string"
        }
      ],
      "stateMutability": "view",
      "type": "function",
      "constant": true
    },
    {
      "inputs": [
        {
          "internalType": "uint256",
          "name": "",
          "type": "uint256"
        }
      ],
      "name": "tickets",
      "outputs": [
        {
          "internalType": "uint256",
          "name": "id",
          "type": "uint256"
        },
        {
          "internalType": "string",
          "name": "name",
          "type": "string"
        },
        {
          "internalType": "uint256",
          "name": "price",
          "type": "uint256"
        },
        {
          "internalType": "uint256",
          "name": "batch_size",
          "type": "uint256"
        },
        {
          "internalType": "uint256",
          "name": "seats",
          "type": "uint256"
        },
        {
          "internalType": "address",
          "name": "organizer",
          "type": "address"
        },
        {
          "internalType": "uint256",
          "name": "date",
          "type": "uint256"
        }
      ],
      "stateMutability": "view",
      "type": "function",
      "constant": true
    },
    {
      "inputs": [
        {
          "internalType": "uint256",
          "name": "index",
          "type": "uint256"
        }
      ],
      "name": "tokenByIndex",
      "outputs": [
        {
          "internalType": "uint256",
          "name": "",
          "type": "uint256"
        }
      ],
      "stateMutability": "view",
      "type": "function",
      "constant": true
    },
    {
      "inputs": [
        {
          "internalType": "address",
          "name": "owner",
          "type": "address"
        },
        {
          "internalType": "uint256",
          "name": "index",
          "type": "uint256"
        }
      ],
      "name": "tokenOfOwnerByIndex",
      "outputs": [
        {
          "internalType": "uint256",
          "name": "",
          "type": "uint256"
        }
      ],
      "stateMutability": "view",
      "type": "function",
      "constant": true
    },
    {
      "inputs": [
        {
          "internalType": "uint256",
          "name": "tokenId",
          "type": "uint256"
        }
      ],
      "name": "tokenURI",
      "outputs": [
        {
          "internalType": "string",
          "name": "",
          "type": "string"
        }
      ],
      "stateMutability": "view",
      "type": "function",
      "constant": true
    },
    {
      "inputs": [],
      "name": "totalSupply",
      "outputs": [
        {
          "internalType": "uint256",
          "name": "",
          "type": "uint256"
        }
      ],
      "stateMutability": "view",
      "type": "function",
      "constant": true
    },
    {
      "inputs": [
        {
          "internalType": "address",
          "name": "from",
          "type": "address"
        },
        {
          "internalType": "address",
          "name": "to",
          "type": "address"
        },
        {
          "internalType": "uint256",
          "name": "tokenId",
          "type": "uint256"
        }
      ],
      "name": "transferFrom",
      "outputs": [],
      "stateMutability": "nonpayable",
      "type": "function"
    },
    {
      "inputs": [
        {
          "internalType": "string",
          "name": "name",
          "type": "string"
        },
        {
          "internalType": "uint256",
          "name": "price",
          "type": "uint256"
        },
        {
          "internalType": "uint256",
          "name": "batch_size",
          "type": "uint256"
        },
        {
          "internalType": "uint256",
          "name": "seats",
          "type": "uint256"
        },
        {
          "internalType": "uint256",
          "name": "date",
          "type": "uint256"
        }
      ],
      "name": "mint",
      "outputs": [],
      "stateMutability": "nonpayable",
      "type": "function"
    },
    {
      "inputs": [
        {
          "internalType": "uint256",
          "name": "_ticketId",
          "type": "uint256"
        }
      ],
      "name": "buyTicket",
      "outputs": [],
      "stateMutability": "payable",
      "type": "function",
      "payable": true
    },
    {
      "inputs": [
        {
          "internalType": "uint256",
          "name": "_ticketId",
          "type": "uint256"
        }
      ],
      "name": "getOwner",
      "outputs": [
        {
          "internalType": "address",
          "name": "",
          "type": "address"
        }
      ],
      "stateMutability": "view",
      "type": "function",
      "constant": true
    },
    {
      "inputs": [
        {
          "internalType": "uint256",
          "name": "_ticketId",
          "type": "uint256"
        }
      ],
      "name": "getTicket",
      "outputs": [
        {
          "internalType": "uint256",
          "name": "id",
          "type": "uint256"
        },
        {
          "internalType": "string",
          "name": "name",
          "type": "string"
        },
        {
          "internalType": "uint256",
          "name": "price",
          "type": "uint256"
        },
        {
          "internalType": "uint256",
          "name": "batch_size",
          "type": "uint256"
        },
        {
          "internalType": "uint256",
          "name": "seats",
          "type": "uint256"
        },
        {
          "internalType": "address",
          "name": "organizer",
          "type": "address"
        },
        {
          "internalType": "uint256",
          "name": "date",
          "type": "uint256"
        }
      ],
      "stateMutability": "view",
      "type": "function",
      "constant": true
    }
  ],
  "bytecode": "0x60806040523480156200001157600080fd5b506040518060400160405280600f81526020017f5469636b6574696e6753797374656d00000000000000000000000000000000008152506040518060400160405280600681526020017f5449434b4554000000000000000000000000000000000000000000000000000081525081600090816200008f91906200032a565b508060019081620000a191906200032a565b50505062000411565b600081519050919050565b7f4e487b7100000000000000000000000000000000000000000000000000000000600052604160045260246000fd5b7f4e487b7100000000000000000000000000000000000000000000000000000000600052602260045260246000fd5b600060028204905060018216806200012c57607f821691505b602082108103620001425762000141620000e4565b5b50919050565b60008190508160005260206000209050919050565b60006020601f8301049050919050565b60008160020a8302905092915050565b600060088302620001af7fffffffffffffffffffffffffffffffffffffffffffffffffffffffffffffffff826200016d565b620001bb86836200016d565b95508019841693508086168417925050509392505050565b6000819050919050565b6000819050919050565b60006200020862000202620001fc84620001d3565b620001dd565b620001d3565b9050919050565b6000819050919050565b6200022483620001e7565b6200023c62000233826200020f565b8484546200017d565b825550505050565b600090565b6200025362000244565b6200026081848462000219565b505050565b5b8181101562000288576200027c60008262000249565b60018101905062000266565b5050565b601f821115620002d757620002a18162000148565b620002ac846200015d565b81016020851015620002bc578190505b620002d4620002cb856200015d565b83018262000265565b50505b505050565b60008160020a8304905092915050565b6000620002ff60001984600802620002dc565b1980831691505092915050565b60006200031a8383620002ec565b9150826002028217905092915050565b6200033582620000aa565b67ffffffffffffffff811115620003515762000350620000b5565b5b6200035d825462000113565b6200036a8282856200028c565b600060209050601f831160018114620003a257600084156200038d578287015190505b6200039985826200030c565b86555062000409565b601f198416620003b28662000148565b60005b82811015620003dc57848901518255600182019150602085019450602081019050620003b5565b86831015620003fc5784890151620003f8601f891682620002ec565b8355505b6001600288020188555050505b505050505050565b613a9480620004216000396000f3fe608060405260043610610147576000357c0100000000000000000000000000000000000000000000000000000000900480636352211e116100c85780639b6eb2a01161008c5780639b6eb2a014610458578063a22cb46514610481578063b88d4fde146104aa578063c41a360a146104d3578063c87b56dd14610510578063e985e9c51461054d57610147565b80636352211e1461035457806367dd74ca1461039157806370a08231146103ad5780637dc379fa146103ea57806395d89b411461042d57610147565b806323b872dd1161010f57806323b872dd146102455780632f745c591461026e57806342842e0e146102ab5780634f6ccce7146102d457806350b447121461031157610147565b806301ffc9a71461014c57806306fdde0314610189578063081812fc146101b4578063095ea7b3146101f157806318160ddd1461021a575b600080fd5b34801561015857600080fd5b50610173600480360381019061016e9190612535565b61058a565b604051610180919061257d565b60405180910390f35b34801561019557600080fd5b5061019e610604565b6040516101ab9190612628565b60405180910390f35b3480156101c057600080fd5b506101db60048036038101906101d69190612680565b610696565b6040516101e891906126ee565b60405180910390f35b3480156101fd57600080fd5b5061021860048036038101906102139190612735565b6106dc565b005b34801561022657600080fd5b5061022f6107f3565b60405161023c9190612784565b60405180910390f35b34801561025157600080fd5b5061026c6004803603810190610267919061279f565b610800565b005b34801561027a57600080fd5b5061029560048036038101906102909190612735565b610860565b6040516102a29190612784565b60405180910390f35b3480156102b757600080fd5b506102d260048036038101906102cd919061279f565b610905565b005b3480156102e057600080fd5b506102fb60048036038101906102f69190612680565b610925565b6040516103089190612784565b60405180910390f35b34801561031d57600080fd5b5061033860048036038101906103339190612680565b610996565b60405161034b97969594939291906127f2565b60405180910390f35b34801561036057600080fd5b5061037b60048036038101906103769190612680565b610a80565b60405161038891906126ee565b60405180910390f35b6103ab60048036038101906103a69190612680565b610b06565b005b3480156103b957600080fd5b506103d460048036038101906103cf9190612868565b610c7e565b6040516103e19190612784565b60405180910390f35b3480156103f657600080fd5b50610411600480360381019061040c9190612680565b610d35565b60405161042497969594939291906127f2565b60405180910390f35b34801561043957600080fd5b50610442610e88565b60405161044f9190612628565b60405180910390f35b34801561046457600080fd5b5061047f600480360381019061047a91906129ca565b610f1a565b005b34801561048d57600080fd5b506104a860048036038101906104a39190612a8d565b611070565b005b3480156104b657600080fd5b506104d160048036038101906104cc9190612b6e565b611086565b005b3480156104df57600080fd5b506104fa60048036038101906104f59190612680565b6110e8565b60405161050791906126ee565b60405180910390f35b34801561051c57600080fd5b5061053760048036038101906105329190612680565b6110fa565b6040516105449190612628565b60405180910390f35b34801561055957600080fd5b50610574600480360381019061056f9190612bf1565b611162565b604051610581919061257d565b60405180910390f35b60007f780e9d63000000000000000000000000000000000000000000000000000000007bffffffffffffffffffffffffffffffffffffffffffffffffffffffff1916827bffffffffffffffffffffffffffffffffffffffffffffffffffffffff191614806105fd57506105fc826111f6565b5b9050919050565b60606000805461061390612c60565b80601f016020809104026020016040519081016040528092919081815260200182805461063f90612c60565b801561068c5780601f106106615761010080835404028352916020019161068c565b820191906000526020600020905b81548152906001019060200180831161066f57829003601f168201915b5050505050905090565b60006106a1826112d8565b6004600083815260200190815260200160002060009054906101000a900473ffffffffffffffffffffffffffffffffffffffff169050919050565b60006106e782610a80565b90508073ffffffffffffffffffffffffffffffffffffffff168373ffffffffffffffffffffffffffffffffffffffff1603610757576040517f08c379a000000000000000000000000000000000000000000000000000000000815260040161074e90612d03565b60405180910390fd5b8073ffffffffffffffffffffffffffffffffffffffff16610776611323565b73ffffffffffffffffffffffffffffffffffffffff1614806107a557506107a48161079f611323565b611162565b5b6107e4576040517f08c379a00000000000000000000000000000000000000000000000000000000081526004016107db90612d95565b60405180910390fd5b6107ee838361132b565b505050565b6000600880549050905090565b61081161080b611323565b826113e4565b610850576040517f08c379a000000000000000000000000000000000000000000000000000000000815260040161084790612e27565b60405180910390fd5b61085b838383611479565b505050565b600061086b83610c7e565b82106108ac576040517f08c379a00000000000000000000000000000000000000000000000000000000081526004016108a390612eb9565b60405180910390fd5b600660008473ffffffffffffffffffffffffffffffffffffffff1673ffffffffffffffffffffffffffffffffffffffff168152602001908152602001600020600083815260200190815260200160002054905092915050565b61092083838360405180602001604052806000815250611086565b505050565b600061092f6107f3565b8210610970576040517f08c379a000000000000000000000000000000000000000000000000000000000815260040161096790612f4b565b60405180910390fd5b6008828154811061098457610983612f6b565b5b90600052602060002001549050919050565b600b6020528060005260406000206000915090508060000154908060010180546109bf90612c60565b80601f01602080910402602001604051908101604052809291908181526020018280546109eb90612c60565b8015610a385780601f10610a0d57610100808354040283529160200191610a38565b820191906000526020600020905b815481529060010190602001808311610a1b57829003601f168201915b5050505050908060020154908060030154908060040154908060050160009054906101000a900473ffffffffffffffffffffffffffffffffffffffff16908060060154905087565b600080610a8c83611772565b9050600073ffffffffffffffffffffffffffffffffffffffff168173ffffffffffffffffffffffffffffffffffffffff1603610afd576040517f08c379a0000000000000000000000000000000000000000000000000000000008152600401610af490612fe6565b60405180910390fd5b80915050919050565b610b0f816117af565b610b4e576040517f08c379a0000000000000000000000000000000000000000000000000000000008152600401610b4590613052565b60405180910390fd5b6000600b600083815260200190815260200160002090508060020154341015610bac576040517f08c379a0000000000000000000000000000000000000000000000000000000008152600401610ba3906130be565b60405180910390fd5b6000610bb783610a80565b90503373ffffffffffffffffffffffffffffffffffffffff168173ffffffffffffffffffffffffffffffffffffffff1603610c27576040517f08c379a0000000000000000000000000000000000000000000000000000000008152600401610c1e90613150565b60405180910390fd5b610c32813385611479565b8073ffffffffffffffffffffffffffffffffffffffff166108fc349081150290604051600060405180830381858888f19350505050158015610c78573d6000803e3d6000fd5b50505050565b60008073ffffffffffffffffffffffffffffffffffffffff168273ffffffffffffffffffffffffffffffffffffffff1603610cee576040517f08c379a0000000000000000000000000000000000000000000000000000000008152600401610ce5906131e2565b60405180910390fd5b600360008373ffffffffffffffffffffffffffffffffffffffff1673ffffffffffffffffffffffffffffffffffffffff168152602001908152602001600020549050919050565b600060606000806000806000610d4a886117af565b610d89576040517f08c379a0000000000000000000000000000000000000000000000000000000008152600401610d8090613052565b60405180910390fd5b6000600b60008a815260200190815260200160002090508060000154816001018260020154836003015484600401548560050160009054906101000a900473ffffffffffffffffffffffffffffffffffffffff168660060154858054610dee90612c60565b80601f0160208091040260200160405190810160405280929190818152602001828054610e1a90612c60565b8015610e675780601f10610e3c57610100808354040283529160200191610e67565b820191906000526020600020905b815481529060010190602001808311610e4a57829003601f168201915b50505050509550975097509750975097509750975050919395979092949650565b606060018054610e9790612c60565b80601f0160208091040260200160405190810160405280929190818152602001828054610ec390612c60565b8015610f105780601f10610ee557610100808354040283529160200191610f10565b820191906000526020600020905b815481529060010190602001808311610ef357829003601f168201915b5050505050905090565b600a6000815480929190610f2d90613231565b91905055506040518060e00160405280600a5481526020018681526020018581526020018481526020018381526020013373ffffffffffffffffffffffffffffffffffffffff16815260200182815250600b6000600a548152602001908152602001600020600082015181600001556020820151816001019081610fb1919061342b565b5060408201518160020155606082015181600301556080820151816004015560a08201518160050160006101000a81548173ffffffffffffffffffffffffffffffffffffffff021916908373ffffffffffffffffffffffffffffffffffffffff16021790555060c0820151816006015590505061103033600a546117f0565b7f52a2720c95932ac5d58043cdc3e912c818b4df5d1778e343147c687ff59e4523600a546040516110619190612784565b60405180910390a15050505050565b61108261107b611323565b8383611a0d565b5050565b611097611091611323565b836113e4565b6110d6576040517f08c379a00000000000000000000000000000000000000000000000000000000081526004016110cd90612e27565b60405180910390fd5b6110e284848484611b79565b50505050565b60006110f382610a80565b9050919050565b6060611105826112d8565b600061110f611bd5565b9050600081511161112f576040518060200160405280600081525061115a565b8061113984611bec565b60405160200161114a929190613539565b6040516020818303038152906040525b915050919050565b6000600560008473ffffffffffffffffffffffffffffffffffffffff1673ffffffffffffffffffffffffffffffffffffffff16815260200190815260200160002060008373ffffffffffffffffffffffffffffffffffffffff1673ffffffffffffffffffffffffffffffffffffffff16815260200190815260200160002060009054906101000a900460ff16905092915050565b60007f80ac58cd000000000000000000000000000000000000000000000000000000007bffffffffffffffffffffffffffffffffffffffffffffffffffffffff1916827bffffffffffffffffffffffffffffffffffffffffffffffffffffffff191614806112c157507f5b5e139f000000000000000000000000000000000000000000000000000000007bffffffffffffffffffffffffffffffffffffffffffffffffffffffff1916827bffffffffffffffffffffffffffffffffffffffffffffffffffffffff1916145b806112d157506112d082611cba565b5b9050919050565b6112e1816117af565b611320576040517f08c379a000000000000000000000000000000000000000000000000000000000815260040161131790612fe6565b60405180910390fd5b50565b600033905090565b816004600083815260200190815260200160002060006101000a81548173ffffffffffffffffffffffffffffffffffffffff021916908373ffffffffffffffffffffffffffffffffffffffff160217905550808273ffffffffffffffffffffffffffffffffffffffff1661139e83610a80565b73ffffffffffffffffffffffffffffffffffffffff167f8c5be1e5ebec7d5bd14f71427d1e84f3dd0314c0f7b2291e5b200ac8c7c3b92560405160405180910390a45050565b6000806113f083610a80565b90508073ffffffffffffffffffffffffffffffffffffffff168473ffffffffffffffffffffffffffffffffffffffff16148061143257506114318185611162565b5b8061147057508373ffffffffffffffffffffffffffffffffffffffff1661145884610696565b73ffffffffffffffffffffffffffffffffffffffff16145b91505092915050565b8273ffffffffffffffffffffffffffffffffffffffff1661149982610a80565b73ffffffffffffffffffffffffffffffffffffffff16146114ef576040517f08c379a00000000000000000000000000000000000000000000000000000000081526004016114e6906135cf565b60405180910390fd5b600073ffffffffffffffffffffffffffffffffffffffff168273ffffffffffffffffffffffffffffffffffffffff160361155e576040517f08c379a000000000000000000000000000000000000000000000000000000000815260040161155590613661565b60405180910390fd5b61156b8383836001611d24565b8273ffffffffffffffffffffffffffffffffffffffff1661158b82610a80565b73ffffffffffffffffffffffffffffffffffffffff16146115e1576040517f08c379a00000000000000000000000000000000000000000000000000000000081526004016115d8906135cf565b60405180910390fd5b6004600082815260200190815260200160002060006101000a81549073ffffffffffffffffffffffffffffffffffffffff02191690556001600360008573ffffffffffffffffffffffffffffffffffffffff1673ffffffffffffffffffffffffffffffffffffffff168152602001908152602001600020600082825403925050819055506001600360008473ffffffffffffffffffffffffffffffffffffffff1673ffffffffffffffffffffffffffffffffffffffff16815260200190815260200160002060008282540192505081905550816002600083815260200190815260200160002060006101000a81548173ffffffffffffffffffffffffffffffffffffffff021916908373ffffffffffffffffffffffffffffffffffffffff160217905550808273ffffffffffffffffffffffffffffffffffffffff168473ffffffffffffffffffffffffffffffffffffffff167fddf252ad1be2c89b69c2b068fc378daa952ba7f163c4a11628f55a4df523b3ef60405160405180910390a461176d8383836001611e82565b505050565b60006002600083815260200190815260200160002060009054906101000a900473ffffffffffffffffffffffffffffffffffffffff169050919050565b60008073ffffffffffffffffffffffffffffffffffffffff166117d183611772565b73ffffffffffffffffffffffffffffffffffffffff1614159050919050565b600073ffffffffffffffffffffffffffffffffffffffff168273ffffffffffffffffffffffffffffffffffffffff160361185f576040517f08c379a0000000000000000000000000000000000000000000000000000000008152600401611856906136cd565b60405180910390fd5b611868816117af565b156118a8576040517f08c379a000000000000000000000000000000000000000000000000000000000815260040161189f90613739565b60405180910390fd5b6118b6600083836001611d24565b6118bf816117af565b156118ff576040517f08c379a00000000000000000000000000000000000000000000000000000000081526004016118f690613739565b60405180910390fd5b6001600360008473ffffffffffffffffffffffffffffffffffffffff1673ffffffffffffffffffffffffffffffffffffffff16815260200190815260200160002060008282540192505081905550816002600083815260200190815260200160002060006101000a81548173ffffffffffffffffffffffffffffffffffffffff021916908373ffffffffffffffffffffffffffffffffffffffff160217905550808273ffffffffffffffffffffffffffffffffffffffff16600073ffffffffffffffffffffffffffffffffffffffff167fddf252ad1be2c89b69c2b068fc378daa952ba7f163c4a11628f55a4df523b3ef60405160405180910390a4611a09600083836001611e82565b5050565b8173ffffffffffffffffffffffffffffffffffffffff168373ffffffffffffffffffffffffffffffffffffffff1603611a7b576040517f08c379a0000000000000000000000000000000000000000000000000000000008152600401611a72906137a5565b60405180910390fd5b80600560008573ffffffffffffffffffffffffffffffffffffffff1673ffffffffffffffffffffffffffffffffffffffff16815260200190815260200160002060008473ffffffffffffffffffffffffffffffffffffffff1673ffffffffffffffffffffffffffffffffffffffff16815260200190815260200160002060006101000a81548160ff0219169083151502179055508173ffffffffffffffffffffffffffffffffffffffff168373ffffffffffffffffffffffffffffffffffffffff167f17307eab39ab6107e8899845ad3d59bd9653f200f220920489ca2b5937696c3183604051611b6c919061257d565b60405180910390a3505050565b611b84848484611479565b611b9084848484611e88565b611bcf576040517f08c379a0000000000000000000000000000000000000000000000000000000008152600401611bc690613837565b60405180910390fd5b50505050565b606060405180602001604052806000815250905090565b606060006001611bfb84612047565b01905060008167ffffffffffffffff811115611c1a57611c1961289f565b5b6040519080825280601f01601f191660200182016040528015611c4c5781602001600182028036833780820191505090505b509050600082602001820190505b600115611caf578080600190039150507f3031323334353637383961626364656600000000000000000000000000000000600a86061a8153600a8581611ca357611ca2613857565b5b04945060008503611c5a575b819350505050919050565b60007f01ffc9a7000000000000000000000000000000000000000000000000000000007bffffffffffffffffffffffffffffffffffffffffffffffffffffffff1916827bffffffffffffffffffffffffffffffffffffffffffffffffffffffff1916149050919050565b611d308484848461219a565b6001811115611d74576040517f08c379a0000000000000000000000000000000000000000000000000000000008152600401611d6b906138f8565b60405180910390fd5b6000829050600073ffffffffffffffffffffffffffffffffffffffff168573ffffffffffffffffffffffffffffffffffffffff1603611dbb57611db6816121a0565b611dfa565b8373ffffffffffffffffffffffffffffffffffffffff168573ffffffffffffffffffffffffffffffffffffffff1614611df957611df885826121e9565b5b5b600073ffffffffffffffffffffffffffffffffffffffff168473ffffffffffffffffffffffffffffffffffffffff1603611e3c57611e3781612356565b611e7b565b8473ffffffffffffffffffffffffffffffffffffffff168473ffffffffffffffffffffffffffffffffffffffff1614611e7a57611e798482612427565b5b5b5050505050565b50505050565b6000611ea98473ffffffffffffffffffffffffffffffffffffffff166124a6565b1561203a578373ffffffffffffffffffffffffffffffffffffffff1663150b7a02611ed2611323565b8786866040518563ffffffff167c0100000000000000000000000000000000000000000000000000000000028152600401611f10949392919061396d565b6020604051808303816000875af1925050508015611f4c57506040513d601f19601f82011682018060405250810190611f4991906139ce565b60015b611fce573d8060008114611f7c576040519150601f19603f3d011682016040523d82523d6000602084013e611f81565b606091505b506000815103611fc6576040517f08c379a0000000000000000000000000000000000000000000000000000000008152600401611fbd90613837565b60405180910390fd5b805181602001fd5b63150b7a027c0100000000000000000000000000000000000000000000000000000000027bffffffffffffffffffffffffffffffffffffffffffffffffffffffff1916817bffffffffffffffffffffffffffffffffffffffffffffffffffffffff19161491505061203f565b600190505b949350505050565b600080600090507a184f03e93ff9f4daa797ed6e38ed64bf6a1f01000000000000000083106120a5577a184f03e93ff9f4daa797ed6e38ed64bf6a1f010000000000000000838161209b5761209a613857565b5b0492506040810190505b6d04ee2d6d415b85acef810000000083106120e2576d04ee2d6d415b85acef810000000083816120d8576120d7613857565b5b0492506020810190505b662386f26fc10000831061211157662386f26fc10000838161210757612106613857565b5b0492506010810190505b6305f5e100831061213a576305f5e10083816121305761212f613857565b5b0492506008810190505b612710831061215f57612710838161215557612154613857565b5b0492506004810190505b60648310612182576064838161217857612177613857565b5b0492506002810190505b600a8310612191576001810190505b80915050919050565b50505050565b6008805490506009600083815260200190815260200160002081905550600881908060018154018082558091505060019003906000526020600020016000909190919091505550565b600060016121f684610c7e565b61220091906139fb565b90506000600760008481526020019081526020016000205490508181146122e5576000600660008673ffffffffffffffffffffffffffffffffffffffff1673ffffffffffffffffffffffffffffffffffffffff168152602001908152602001600020600084815260200190815260200160002054905080600660008773ffffffffffffffffffffffffffffffffffffffff1673ffffffffffffffffffffffffffffffffffffffff168152602001908152602001600020600084815260200190815260200160002081905550816007600083815260200190815260200160002081905550505b6007600084815260200190815260200160002060009055600660008573ffffffffffffffffffffffffffffffffffffffff1673ffffffffffffffffffffffffffffffffffffffff16815260200190815260200160002060008381526020019081526020016000206000905550505050565b6000600160088054905061236a91906139fb565b905060006009600084815260200190815260200160002054905060006008838154811061239a57612399612f6b565b5b9060005260206000200154905080600883815481106123bc576123bb612f6b565b5b90600052602060002001819055508160096000838152602001908152602001600020819055506009600085815260200190815260200160002060009055600880548061240b5761240a613a2f565b5b6001900381819060005260206000200160009055905550505050565b600061243283610c7e565b905081600660008573ffffffffffffffffffffffffffffffffffffffff1673ffffffffffffffffffffffffffffffffffffffff168152602001908152602001600020600083815260200190815260200160002081905550806007600084815260200190815260200160002081905550505050565b6000808273ffffffffffffffffffffffffffffffffffffffff163b119050919050565b6000604051905090565b600080fd5b600080fd5b60007fffffffff0000000000000000000000000000000000000000000000000000000082169050919050565b612512816124dd565b811461251d57600080fd5b50565b60008135905061252f81612509565b92915050565b60006020828403121561254b5761254a6124d3565b5b600061255984828501612520565b91505092915050565b60008115159050919050565b61257781612562565b82525050565b6000602082019050612592600083018461256e565b92915050565b600081519050919050565b600082825260208201905092915050565b60005b838110156125d25780820151818401526020810190506125b7565b60008484015250505050565b6000601f19601f8301169050919050565b60006125fa82612598565b61260481856125a3565b93506126148185602086016125b4565b61261d816125de565b840191505092915050565b6000602082019050818103600083015261264281846125ef565b905092915050565b6000819050919050565b61265d8161264a565b811461266857600080fd5b50565b60008135905061267a81612654565b92915050565b600060208284031215612696576126956124d3565b5b60006126a48482850161266b565b91505092915050565b600073ffffffffffffffffffffffffffffffffffffffff82169050919050565b60006126d8826126ad565b9050919050565b6126e8816126cd565b82525050565b600060208201905061270360008301846126df565b92915050565b612712816126cd565b811461271d57600080fd5b50565b60008135905061272f81612709565b92915050565b6000806040838503121561274c5761274b6124d3565b5b600061275a85828601612720565b925050602061276b8582860161266b565b9150509250929050565b61277e8161264a565b82525050565b60006020820190506127996000830184612775565b92915050565b6000806000606084860312156127b8576127b76124d3565b5b60006127c686828701612720565b93505060206127d786828701612720565b92505060406127e88682870161266b565b9150509250925092565b600060e082019050612807600083018a612775565b818103602083015261281981896125ef565b90506128286040830188612775565b6128356060830187612775565b6128426080830186612775565b61284f60a08301856126df565b61285c60c0830184612775565b98975050505050505050565b60006020828403121561287e5761287d6124d3565b5b600061288c84828501612720565b91505092915050565b600080fd5b600080fd5b7f4e487b7100000000000000000000000000000000000000000000000000000000600052604160045260246000fd5b6128d7826125de565b810181811067ffffffffffffffff821117156128f6576128f561289f565b5b80604052505050565b60006129096124c9565b905061291582826128ce565b919050565b600067ffffffffffffffff8211156129355761293461289f565b5b61293e826125de565b9050602081019050919050565b82818337600083830152505050565b600061296d6129688461291a565b6128ff565b9050828152602081018484840111156129895761298861289a565b5b61299484828561294b565b509392505050565b600082601f8301126129b1576129b0612895565b5b81356129c184826020860161295a565b91505092915050565b600080600080600060a086880312156129e6576129e56124d3565b5b600086013567ffffffffffffffff811115612a0457612a036124d8565b5b612a108882890161299c565b9550506020612a218882890161266b565b9450506040612a328882890161266b565b9350506060612a438882890161266b565b9250506080612a548882890161266b565b9150509295509295909350565b612a6a81612562565b8114612a7557600080fd5b50565b600081359050612a8781612a61565b92915050565b60008060408385031215612aa457612aa36124d3565b5b6000612ab285828601612720565b9250506020612ac385828601612a78565b9150509250929050565b600067ffffffffffffffff821115612ae857612ae761289f565b5b612af1826125de565b9050602081019050919050565b6000612b11612b0c84612acd565b6128ff565b905082815260208101848484011115612b2d57612b2c61289a565b5b612b3884828561294b565b509392505050565b600082601f830112612b5557612b54612895565b5b8135612b65848260208601612afe565b91505092915050565b60008060008060808587031215612b8857612b876124d3565b5b6000612b9687828801612720565b9450506020612ba787828801612720565b9350506040612bb88782880161266b565b925050606085013567ffffffffffffffff811115612bd957612bd86124d8565b5b612be587828801612b40565b91505092959194509250565b60008060408385031215612c0857612c076124d3565b5b6000612c1685828601612720565b9250506020612c2785828601612720565b9150509250929050565b7f4e487b7100000000000000000000000000000000000000000000000000000000600052602260045260246000fd5b60006002820490506001821680612c7857607f821691505b602082108103612c8b57612c8a612c31565b5b50919050565b7f4552433732313a20617070726f76616c20746f2063757272656e74206f776e6560008201527f7200000000000000000000000000000000000000000000000000000000000000602082015250565b6000612ced6021836125a3565b9150612cf882612c91565b604082019050919050565b60006020820190508181036000830152612d1c81612ce0565b9050919050565b7f4552433732313a20617070726f76652063616c6c6572206973206e6f7420746f60008201527f6b656e206f776e6572206f7220617070726f76656420666f7220616c6c000000602082015250565b6000612d7f603d836125a3565b9150612d8a82612d23565b604082019050919050565b60006020820190508181036000830152612dae81612d72565b9050919050565b7f4552433732313a2063616c6c6572206973206e6f7420746f6b656e206f776e6560008201527f72206f7220617070726f76656400000000000000000000000000000000000000602082015250565b6000612e11602d836125a3565b9150612e1c82612db5565b604082019050919050565b60006020820190508181036000830152612e4081612e04565b9050919050565b7f455243373231456e756d657261626c653a206f776e657220696e646578206f7560008201527f74206f6620626f756e6473000000000000000000000000000000000000000000602082015250565b6000612ea3602b836125a3565b9150612eae82612e47565b604082019050919050565b60006020820190508181036000830152612ed281612e96565b9050919050565b7f455243373231456e756d657261626c653a20676c6f62616c20696e646578206f60008201527f7574206f6620626f756e64730000000000000000000000000000000000000000602082015250565b6000612f35602c836125a3565b9150612f4082612ed9565b604082019050919050565b60006020820190508181036000830152612f6481612f28565b9050919050565b7f4e487b7100000000000000000000000000000000000000000000000000000000600052603260045260246000fd5b7f4552433732313a20696e76616c696420746f6b656e2049440000000000000000600082015250565b6000612fd06018836125a3565b9150612fdb82612f9a565b602082019050919050565b60006020820190508181036000830152612fff81612fc3565b9050919050565b7f4572726f723a207469636b657420646f6573206e6f7420657869737400000000600082015250565b600061303c601c836125a3565b915061304782613006565b602082019050919050565b6000602082019050818103600083015261306b8161302f565b9050919050565b7f4572726f723a20696e73756666696369656e742066756e647300000000000000600082015250565b60006130a86019836125a3565b91506130b382613072565b602082019050919050565b600060208201905081810360008301526130d78161309b565b9050919050565b7f4572726f723a2063616e6e6f742062757920796f7572206f776e207469636b6560008201527f7400000000000000000000000000000000000000000000000000000000000000602082015250565b600061313a6021836125a3565b9150613145826130de565b604082019050919050565b600060208201905081810360008301526131698161312d565b9050919050565b7f4552433732313a2061646472657373207a65726f206973206e6f74206120766160008201527f6c6964206f776e65720000000000000000000000000000000000000000000000602082015250565b60006131cc6029836125a3565b91506131d782613170565b604082019050919050565b600060208201905081810360008301526131fb816131bf565b9050919050565b7f4e487b7100000000000000000000000000000000000000000000000000000000600052601160045260246000fd5b600061323c8261264a565b91507fffffffffffffffffffffffffffffffffffffffffffffffffffffffffffffffff820361326e5761326d613202565b5b600182019050919050565b60008190508160005260206000209050919050565b60006020601f8301049050919050565b60008160020a8302905092915050565b6000600883026132de7fffffffffffffffffffffffffffffffffffffffffffffffffffffffffffffffff8261329e565b6132e8868361329e565b95508019841693508086168417925050509392505050565b6000819050919050565b600061332561332061331b8461264a565b613300565b61264a565b9050919050565b6000819050919050565b61333f8361330a565b61335361334b8261332c565b8484546132ae565b825550505050565b600090565b61336861335b565b613373818484613336565b505050565b5b818110156133975761338c600082613360565b600181019050613379565b5050565b601f8211156133dc576133ad81613279565b6133b68461328e565b810160208510156133c5578190505b6133d96133d18561328e565b830182613378565b50505b505050565b60008160020a8304905092915050565b6000613402600019846008026133e1565b1980831691505092915050565b600061341b83836133f1565b9150826002028217905092915050565b61343482612598565b67ffffffffffffffff81111561344d5761344c61289f565b5b6134578254612c60565b61346282828561339b565b600060209050601f8311600181146134955760008415613483578287015190505b61348d858261340f565b8655506134f5565b601f1984166134a386613279565b60005b828110156134cb578489015182556001820191506020850194506020810190506134a6565b868310156134e857848901516134e4601f8916826133f1565b8355505b6001600288020188555050505b505050505050565b600081905092915050565b600061351382612598565b61351d81856134fd565b935061352d8185602086016125b4565b80840191505092915050565b60006135458285613508565b91506135518284613508565b91508190509392505050565b7f4552433732313a207472616e736665722066726f6d20696e636f72726563742060008201527f6f776e6572000000000000000000000000000000000000000000000000000000602082015250565b60006135b96025836125a3565b91506135c48261355d565b604082019050919050565b600060208201905081810360008301526135e8816135ac565b9050919050565b7f4552433732313a207472616e7366657220746f20746865207a65726f2061646460008201527f7265737300000000000000000000000000000000000000000000000000000000602082015250565b600061364b6024836125a3565b9150613656826135ef565b604082019050919050565b6000602082019050818103600083015261367a8161363e565b9050919050565b7f4552433732313a206d696e7420746f20746865207a65726f2061646472657373600082015250565b60006136b76020836125a3565b91506136c282613681565b602082019050919050565b600060208201905081810360008301526136e6816136aa565b9050919050565b7f4552433732313a20746f6b656e20616c7265616479206d696e74656400000000600082015250565b6000613723601c836125a3565b915061372e826136ed565b602082019050919050565b6000602082019050818103600083015261375281613716565b9050919050565b7f4552433732313a20617070726f766520746f2063616c6c657200000000000000600082015250565b600061378f6019836125a3565b915061379a82613759565b602082019050919050565b600060208201905081810360008301526137be81613782565b9050919050565b7f4552433732313a207472616e7366657220746f206e6f6e20455243373231526560008201527f63656976657220696d706c656d656e7465720000000000000000000000000000602082015250565b60006138216032836125a3565b915061382c826137c5565b604082019050919050565b6000602082019050818103600083015261385081613814565b9050919050565b7f4e487b7100000000000000000000000000000000000000000000000000000000600052601260045260246000fd5b7f455243373231456e756d657261626c653a20636f6e736563757469766520747260008201527f616e7366657273206e6f7420737570706f727465640000000000000000000000602082015250565b60006138e26035836125a3565b91506138ed82613886565b604082019050919050565b60006020820190508181036000830152613911816138d5565b9050919050565b600081519050919050565b600082825260208201905092915050565b600061393f82613918565b6139498185613923565b93506139598185602086016125b4565b613962816125de565b840191505092915050565b600060808201905061398260008301876126df565b61398f60208301866126df565b61399c6040830185612775565b81810360608301526139ae8184613934565b905095945050505050565b6000815190506139c881612509565b92915050565b6000602082840312156139e4576139e36124d3565b5b60006139f2848285016139b9565b91505092915050565b6000613a068261264a565b9150613a118361264a565b9250828203905081811115613a2957613a28613202565b5b92915050565b7f4e487b7100000000000000000000000000000000000000000000000000000000600052603160045260246000fdfea26469706673582212205d24d879744aa1c372a98b7d74b037a8766fca4541b399e86923b6d1e22dcb4564736f6c63430008140033",
  "immutableReferences": {},
  "source": "// SPDX-License-Identifier: MIT\n// Selects the version of Solidity to use.\npragma solidity ^0.8.0;\n\nimport \"../node_modules/@openzeppelin/contracts/token/ERC721/extensions/ERC721Enumerable.sol\";\n\ncontract TicketingSystem is ERC721Enumerable {\n    uint256 private ticketId; // Keeps track of the total number of tickets\n\n    // Structure to hold ticket data\n    struct Ticket {\n        uint256 id; // Unique ticket id\n        string name; // Name of the ticket\n        uint256 price; // Price of the ticket\n        uint256 batch_size; // The batch size of the tickets\n        uint256 seats; // Number of seats per ticket\n        address organizer; // Address of the organizer who created the ticket\n        uint256 date; // Date of the event\n    }\n\n    // Mapping from ticket id to Ticket struct\n    mapping(uint256 => Ticket) public tickets;\n\n    event TicketMinted(uint256 ticketId);\n\n    constructor() ERC721(\"TicketingSystem\", \"TICKET\") {}\n\n    // Function to mint a new ticket. Any user can call this function.\n    function mint(\n        string memory name,\n        uint256 price,\n        uint256 batch_size,\n        uint256 seats,\n        uint256 date\n    ) public {\n        ticketId++;\n        tickets[ticketId] = Ticket(\n            ticketId,\n            name,\n            price,\n            batch_size,\n            seats,\n            msg.sender,\n            date\n        );\n        _mint(msg.sender, ticketId); // Create the NFT for the ticket\n        emit TicketMinted(ticketId);\n    }\n\n    // Function to buy a ticket. The user who calls this function will be the new owner of the ticket.\n    function buyTicket(uint256 _ticketId) public payable {\n        require(_exists(_ticketId), \"Error: ticket does not exist\");\n        Ticket storage ticket = tickets[_ticketId];\n        require(msg.value >= ticket.price, \"Error: insufficient funds\");\n        address owner = ownerOf(_ticketId);\n        require(owner != msg.sender, \"Error: cannot buy your own ticket\");\n\n        _transfer(owner, msg.sender, _ticketId); // Transfer the ownership of the ticket to the buyer\n        // Send the funds to the owner of the ticket.\n        payable(owner).transfer(msg.value);  //should be msg.value\n    }\n    // This function will return the owner of a given ticket.\n    function getOwner(uint256 _ticketId) public view returns (address) {\n        return ownerOf(_ticketId);\n    }\n\n    // Function to get the details of a ticket.\n    function getTicket(\n        uint256 _ticketId\n    )\n        public\n        view\n        returns (\n            uint256 id,\n            string memory name,\n            uint256 price,\n            uint256 batch_size,\n            uint256 seats,\n            address organizer,\n            uint256 date\n        )\n    {\n        require(_exists(_ticketId), \"Error: ticket does not exist\");\n        Ticket storage ticket = tickets[_ticketId];\n        return (\n            ticket.id,\n            ticket.name,\n            ticket.price,\n            ticket.batch_size,\n            ticket.seats,\n            ticket.organizer,\n            ticket.date\n        );\n    }\n}\n",
  "sourcePath": "/home/stonex/private/facultate/licenta/licenta_main/contracts/TicketingSystem.sol",
  "compiler": {
    "name": "solc",
    "version": "0.8.20+commit.a1b79de6.Emscripten.clang"
  },
  "schemaVersion": "3.4.14",
  "updatedAt": "2023-06-11T12:41:33.606Z",
  "networkType": "ethereum",
  "devdoc": {
    "events": {
      "Approval(address,address,uint256)": {
        "details": "Emitted when `owner` enables `approved` to manage the `tokenId` token."
      },
      "ApprovalForAll(address,address,bool)": {
        "details": "Emitted when `owner` enables or disables (`approved`) `operator` to manage all of its assets."
      },
      "Transfer(address,address,uint256)": {
        "details": "Emitted when `tokenId` token is transferred from `from` to `to`."
      }
    },
    "kind": "dev",
    "methods": {
      "approve(address,uint256)": {
        "details": "See {IERC721-approve}."
      },
      "balanceOf(address)": {
        "details": "See {IERC721-balanceOf}."
      },
      "getApproved(uint256)": {
        "details": "See {IERC721-getApproved}."
      },
      "isApprovedForAll(address,address)": {
        "details": "See {IERC721-isApprovedForAll}."
      },
      "name()": {
        "details": "See {IERC721Metadata-name}."
      },
      "ownerOf(uint256)": {
        "details": "See {IERC721-ownerOf}."
      },
      "safeTransferFrom(address,address,uint256)": {
        "details": "See {IERC721-safeTransferFrom}."
      },
      "safeTransferFrom(address,address,uint256,bytes)": {
        "details": "See {IERC721-safeTransferFrom}."
      },
      "setApprovalForAll(address,bool)": {
        "details": "See {IERC721-setApprovalForAll}."
      },
      "supportsInterface(bytes4)": {
        "details": "See {IERC165-supportsInterface}."
      },
      "symbol()": {
        "details": "See {IERC721Metadata-symbol}."
      },
      "tokenByIndex(uint256)": {
        "details": "See {IERC721Enumerable-tokenByIndex}."
      },
      "tokenOfOwnerByIndex(address,uint256)": {
        "details": "See {IERC721Enumerable-tokenOfOwnerByIndex}."
      },
      "tokenURI(uint256)": {
        "details": "See {IERC721Metadata-tokenURI}."
      },
      "totalSupply()": {
        "details": "See {IERC721Enumerable-totalSupply}."
      },
      "transferFrom(address,address,uint256)": {
        "details": "See {IERC721-transferFrom}."
      }
    },
    "version": 1
  },
  "userdoc": {
    "kind": "user",
    "methods": {},
    "version": 1
  }
}